:020000040800F2
:100000004842002025020008657C0008C1680008FD
:1000100000000000000000000000000000000000E0
:1000200000000000000000000000000071940008C3
:100030000000000000000000AB01000851B1000802
:1000400037020008370200084D7E0008370200081A
:1000500037020008212C0008312C0008412C000830
:10006000370200083702000837020008370200088C
:10007000370200083702000837020008370200087C
:1000800001B3000837020008370200080000000032
:10009000370200083702000837020008370200085C
:1000A0003702000837020008370200085DC2000866
:1000B0006DC2000837020008370200083702000846
:1000C00000F002F800F04BF80CA030C808382418F3
:1000D0002D18A246671EAB4654465D46AC4201D180
:1000E00000F03DF87E460F3E0FCCB6460126334267
:1000F00000D0FB1AA246AB4633431847E055010037
:10010000005601000023002400250026103A01D3E8
:1001100078C1FBD8520700D330C100D50B607047BF
:1001200010B5642902D100F07FF910BD782902D101
:1001300000F0B0F910BD732902D101F023FD10BD0C
:10014000002010BD1FB501F04DFE0400002000216D
:1001500014F06AF9401C60601FBD10B510BD01F0BD
:1001600075FE1146FFF7EEFF11F0DAFD01F08DFE8E
:1001700003B4FFF7F2FF03BC01F0BEFE064B1968A3
:100180000868203080F30988022080F314883FBC7F
:10019000AE4662B600BD0000A4020020EFF310805E
:1001A00072B6704780F310887047EFF309800E4BEA
:1001B0001A6820381060F0C044464D4656465F46E7
:1001C000F0C008B572B613F08DFB62B60CBC1168B6
:1001D00008681030F0C8A046A946B246BB4680F376
:1001E00009882038F0C81847A402002070B50546D9
:1001F0000C46164602E00FCC0FC5103E102EFAD268
:10020000082E02D303CC03C5083E042E07D301CC2D
:1002100001C5361F03E021782970641C6D1C761E11
:10022000F9D270BD0748804707480047FEE7FEE760
:10023000FEE7FEE7FEE7FEE704480549054A064BF0
:100240007047000099B20008C1000008483C002037
:1002500048420020483E0020483E0020FEB50546AA
:1002600010460C46184373D0AE468C460020AD1A9B
:1002700001469C4167D36646002701243D46B61AD5
:100280009D4102D313463A462124654676462F0403
:10029000360C3E432D0CB61A9D4104D3150C1B049D
:1002A0002B4312041034654676462F06360A3E4329
:1002B0002D0AB61A9D4104D3150E1B022B431202C0
:1002C0000834654676462F0736093E432D09B61A8F
:1002D0009D4104D3150F1B012B431201241D6546BC
:1002E0007646AF07B6083E43AD08B61A9D4104D323
:1002F000950F9B002B439200A41C65467646EF07A2
:1003000076083E436D08B61A9D411AD392185B4198
:10031000641C16E00018764665464941B71A9D41AF
:100320000191009009D36046B11A98418E468446E7
:10033000009801990025401C6941DD0752082A43B5
:100340005B08641EE6D57246634603B0F0BDFFE766
:1003500000200146C046C0462A462346F5E7000075
:100360000FB41CB5074B06AA7B446946009005985C
:1003700001F0DDFB0020694601F0ECFB1CBC08BC71
:1003800004B01847E917000070B504468569006895
:10039000C10601D5302600E02026C00707D070BD79
:1003A00062683046A1689047206A401C20626D1E3A
:1003B000F6D570BD70B5044685690078C00707D1D1
:1003C00070BD6268A16820209047206A401C2062AE
:1003D0006D1EF6D570BD70B50C460546012A05D0D8
:1003E0002878800600D5EA69002302E0012305E0B1
:1003F0005B1C934202D2E05C0028F9D1A869E618A0
:10040000C01AA861286AC01828622846FFF7BCFFF6
:1004100004E06A682078A968641C9047B442F8D365
:100420002846FFF7C7FF70BDF7B50025752910688E
:10043000009914A611D0C046C046002802DA4042F6
:1004400011A608E0009909688A0701D50FA602E005
:10045000490704D50EA6012501E0C046C046009F0D
:100460000024243704E001F0E4FB30313955641CEA
:100470000028F8D12B4632462146009801F0F9FABF
:10048000FEBD0000000000002D0000002B00000059
:100490002000000070B504460D4621461068C04695
:1004A000C0462188090502D50F4A7A4402E00E4A67
:1004B0007A440E3223460021243305E00607000962
:1004C000360F965D5E54491C0028F7D12078002332
:1004D000000705D5702D03D0002901D00223113269
:1004E000204601F0C6FA70BD664C0100F3B5044623
:1004F000002081B020622046E168884700287DD036
:10050000252802D06268A16883E0454F00257F441A
:100510002046E16888472028064608DB312E06D2AF
:10052000B81920380078002801D00543F0E7A80763
:1005300001D5042085430020E0610746A0612A2EF2
:100540000AD030460CF06EFF002827D0B800001902
:10055000303E0090866119E00298BA00121902C874
:10056000916102902046E1688847012F064617D125
:10057000E06900281FDA202085431CE000980A214A
:100580008069484300998019303888612046E168C5
:10059000884706460CF046FF0028EFD1012F0AD00D
:1005A0002E2E08D12046E1688847064620200543C4
:1005B0007F1C022FC3DBA069002803DA4042A06140
:1005C00001200543E80701D010208543002E24D0E8
:1005D00030464138192803D80120C002054320368F
:1005E000204625603146029A1546FFF799FD0028FE
:1005F0000CD0012807D0ED1DE80800E00DE0C00098
:100600000830029077E72D1D029574E76268304646
:10061000A1689047206A401C6CE7206AFEBD00007C
:100620002A4C0100F7B50F460026009C2578641C73
:10063000002D05D001F004FA0068405DC007F5D137
:100640002B2D02D02D2D18D0641E3946029A20463B
:1006500001F09CFA002F04D03968A14201D1009921
:1006600039607105022400290BDA4042002803DDBD
:1006700001F0EEF90460A007FEBD012080020643F0
:10068000E3E70028F8DA01F0E3F904600048FEBD72
:10069000FFFFFF7FF7B50F4682B00026029C01F0F6
:1006A000D7F90090006801902578641C002D05D0D2
:1006B00001F0C6F90068405DC007F5D12B2D02D0CE
:1006C0002D2D1CD0641E0098002101603946204663
:1006D000049A01F05BFA002F014604D03868A0426A
:1006E00001D1029838600098006802280BD0009869
:1006F000019A0260700506D5484205B0F0BD0120A0
:1007000080020643DFE70846F7E7034610B50B43D0
:100710009B070FD1042A0DD308C810C9121FA3428A
:10072000F8D018BA21BA884201D9012010BD0020A2
:10073000C04310BD002A03D0D30703D0521C07E0EA
:10074000002010BD03780C78401C491C1B1B07D1EE
:1007500003780C78401C491C1B1B01D1921EF1D15F
:10076000184610BDF7B505460E460020044600E0C9
:10077000641C02998C420BD2285D01F06DF907468A
:10078000305D01F069F9381A02D1295D0029EFD1F5
:10079000FEBDF8B50E460546002400E0641C285D49
:1007A00001F05AF90746305D01F056F9381A02D1C6
:1007B000295D0029F2D1F8BD30B5441C03E0017871
:1007C000401C00290DD08107F9D10B4BDD0104C875
:1007D000D11A91432940FAD0001B0A0603D0C01E4B
:1007E00030BD001B30BD0A0401D0801E30BD09029F
:1007F000FCD0401E30BD0000010101010346F0B5F0
:100800000B439B072DD1244DEF01042A29D308C89F
:1008100010C95E1B9E43121F3E4017D0D8B2E1B2F2
:10082000401A3106014310D198B2A1B2401A3104E6
:1008300001430AD118022102000A090A401A3102B2
:10084000014302D1180E210E401AF0BDA342DCD0A4
:1008500018BA21BA884201D90120F0BD0020C04356
:10086000F0BD002A01D10020F0BD03780C78401CB7
:10087000491C002B0DD0A3420BD1521E09D0037886
:100880000C78401C491C002B03D0A34201D1521EFE
:10089000EBD1181BF0BD000001010101421E53788D
:1008A000521C002BFBD10B78491C1370521C002BDF
:1008B000F9D17047F8B5042A2CD3830712D00B78EE
:1008C000491C0370401C521E83070BD00B78491C37
:1008D0000370401C521E830704D00B78491C037020
:1008E000401C521E8B079B0F05D0C91ADF00202326
:1008F000DE1B08C90AE0FFF779FCF8BD1D4608C9F0
:10090000FD401C46B4402C4310C0121F042AF5D2EF
:10091000F308C91A521EF0D40B78491C0370401C0E
:10092000521EEAD40B78491C0370401C012AE4D4FF
:1009300009780170F8BDD2B210B513029A181304E9
:100940009A1800F00EF810BD01E004C0091F042938
:10095000FBD28B0701D50280801CC90700D0027032
:10096000704700290BD0C30702D00270401C491EFB
:10097000022904D3830702D50280801C891EE3E785
:100980000022EEE70022DFE7F8B507460B463946BE
:100990001943890713D1164CE601042A0FD302CB61
:1009A0000D1B8D43354202D102C0121FF5E7CBB2B9
:1009B0000370401C521E002B13D0090AF7E7002ACF
:1009C00014D01978521E5B1C0170401C002908D0FD
:1009D000002A0BD01978521E5B1C0170401C0029A4
:1009E000EDD1002A02D01146FFF7CAFF3846F8BD04
:1009F00001010101024670B50A4392072AD11E4D3A
:100A0000EE0104C808C9541B9443344017D0D0B237
:100A1000D9B2401A2106014310D190B299B2401ABE
:100A2000210401430AD110021902000A090A401ADE
:100A30002102014302D1100E190E401A70BD9A42D4
:100A4000DFD010BA19BA884201D9012070BD002048
:100A5000C04370BD02780B78401C491C002A09D0A5
:100A60009A4207D102780B78401C491C002A01D019
:100A70009A42EFD0D01A70BD010101010378C2780B
:100A80001946437812061B0219438378C0781B0469
:100A9000194311430902090A000608437047020A74
:100AA00008704A70020C8A70020ECA7070470022E9
:100AB00003098B422CD3030A8B4211D300239C469B
:100AC0004EE003460B433CD4002243088B4231D313
:100AD00003098B421CD3030A8B4201D394463FE0A7
:100AE000C3098B4201D3CB01C01A524183098B4207
:100AF00001D38B01C01A524143098B4201D34B01F0
:100B0000C01A524103098B4201D30B01C01A524152
:100B1000C3088B4201D3CB00C01A524183088B42D9
:100B200001D38B00C01A524143088B4201D34B00C2
:100B3000C01A5241411A00D2014652411046704734
:100B40005DE0CA0F00D04942031000D34042534039
:100B500000229C4603098B422DD3030A8B4212D3F9
:100B6000FC22890112BA030A8B420CD3890192112B
:100B70008B4208D3890192118B4204D389013AD068
:100B8000921100E08909C3098B4201D3CB01C01A3D
:100B9000524183098B4201D38B01C01A5241430950
:100BA0008B4201D34B01C01A524103098B4201D33E
:100BB0000B01C01A5241C3088B4201D3CB00C01AAB
:100BC000524183088B4201D38B00C01A5241D9D2C3
:100BD00043088B4201D34B00C01A5241411A00D244
:100BE0000146634652415B10104601D34042002B40
:100BF00000D54942704763465B1000D3404201B5BF
:100C00000020C046C04602BD7047704770470000D4
:100C10000246C80FC00781434B0030B54B405B0014
:100C20009B0D20D01923DB06C91801231B0599420F
:100C300020DB0324A40704251346AB400BD3002B71
:100C400004D1EB0613409B00E34204D40124640763
:100C5000002312195941FF231B0599420BD2C900E9
:100C60000143500F09E0CB0204D5014308030243BE
:100C700005D0054830BDFF21C905084330BD0846F1
:100C800007210905884330BD0000C07FF0B50C4640
:100C9000871A9C410D46861A9D4103D2C01BA14173
:100CA000D21963410D0D1F0DC94EEC1BAE435CD034
:100CB0007F057F0D0026002F51D02D05AC46A9439E
:100CC000DD020123ED0A1B051D4320231B1B24D439
:100CD0001746E740381871412F46E740CC199D4030
:100CE0002818314661410C0D27D161449A4013D533
:100CF0000023401C594152000ED1400840000122FF
:100D00004B005205D34207D305204007C14201D50D
:100D1000B04900E0B0493046F0BD6B00002A00D079
:100D200001229A181F23203C1B1B01D5002302E03F
:100D3000E540281871410C0DD7D00124240509196C
:100D4000C407CD0740084908E40F28436144002C3C
:100D5000D5D00024401C61419A40D0D1CDE76A052E
:100D6000520DD9D1C90FC907D5E79C4D4E000028B7
:100D700001D0012400E0002434195F00002A01D0D2
:100D8000012600E00026BE19954FAC420CD8AE42B9
:100D90000AD8B44206D001256D05EC42BCD01046FD
:100DA0001946F0BD9942FCD000203946F0BDF0B59F
:100DB0001FB40C460F46811A9F412546861A9D4155
:100DC00006D20125ED076F40401ABC4152187B4105
:100DD000210D1E0D8D1BAC467D4D8D437ED07505BE
:100DE0006D0D7CD00D05AE46AC431B031B0B794D3E
:100DF00052429D41202366469B1B14D31746F74061
:100E0000381800260090744160462F460741E419C7
:100E100000989D402818664116D4714671189A4072
:100E200025D5012320E093182A466A415200002B61
:100E300000D0521C1E23203E9B1B002B61DD354140
:100E4000EE1728186641E8D5001876415B1C9A40D9
:100E500000D3401C4B05F3181524E34010D3002B9E
:100E600052D071467118D30FC01802D3491C05B077
:100E7000F0BD0123DB079A42F9D140084000F6E7B4
:100E800001225205B21801D1002853D00123CC0A07
:100E9000DB029943891E002A08D1020C03D0020C00
:100EA0000004103902E00246002020390023550BCF
:100EB00005D112020823550B01D152010D23550C07
:100EC00001D112011B1DD50C01D192009B1C150DE7
:100ED00001D152005B1C2025EE1A01E02CE022E03B
:100EE0000546F54015439840CA1AE10769181305ED
:100EF000C918002ABBDA032040070818C10FC90728
:100F00000FE071466118B2E7F1074008084371101D
:100F100071444A000CD001235B059A42A7D2C90F45
:100F2000C9070020A3E74905490D26D1002001E0AB
:100F30000028F4D100219AE7284D6600002801D04E
:100F4000012100E0002171185F00002A01D0012674
:100F500000E00026BE19224FA94210D8AE420ED89A
:100F6000B14208D001256D05E94206D01946A80214
:100F7000414010467BE79C4201D0214677E70020A4
:100F8000394674E710B50C465C4005D50124E407EA
:100F90006340FFF70CFF10BDFFF778FE10BD30B4C3
:100FA0000C465C4004D50124E407634030BC6DE688
:100FB00030BCFCE670B50124E40761400D465D409D
:100FC00002D4FFF763FE70BD6340FFF7F0FE70BD13
:100FD000FF0700000000F0FF0000F07F0000E0FFCE
:100FE0000000F87FF0B5F94D0C091E092C402E4089
:100FF0002F468BB0A7437DD0B543FCD0002E7AD0CE
:10100000002CFCD00D465D40ED0F2543AC1BFF25A9
:10101000AD0464190894C502440DC9022143500D62
:10102000DC0204430120C00701430443D2020191C2
:10103000200C110C00958C46010423468B430A9129
:1010400061460904E24D8A430991010A7D44491928
:101050008039097805464D4301266D18F605751B44
:101060006943C90C640B891C4C436418B5012C1BE3
:10107000250C2E04B4434C434D43210C69188909B7
:101080000591009DE90701D00121C90704912C4673
:1010900001996708CD072F434C08059DE10B4D438F
:1010A0002D0C29466646754302950D4645432E464E
:1010B000029D7D1BB44100950D465D4301942C0CAF
:1010C0002F040D465543AE462D0C3D430295039427
:1010D0007546049C2D04641B049406D2029C039D57
:1010E000641C002675410395029401AC70CC009FEE
:1010F0007D1B01E03EE162E1B441090400950791E6
:1011000001940599A4086143090C0C464443650BFE
:10111000E7040C4666467443A646640B3C430395BD
:1011200002947446049DE4042C1B049406D2029C91
:10113000039D641C002675410395029401AC70CC9C
:10114000009F7D1BB44101940C465C430095650FE4
:10115000E7000C465443A646640F3C4303950294B3
:101160007446049DE4002C1B049406D2029C039D4B
:10117000641C002675410395029401AC70CC009F5D
:101180007D1BB441AE09AF06049DC900AD092F43D4
:10119000049DA406AD060495079D34436918079184
:1011A000059DE10B4D432D0C29466646754302957E
:1011B0000D4645432E46029D7D1BB44100950D46CC
:1011C0005D4301942C0C2F040D465543AE462D0C67
:1011D0003D43029503947546049C2D04641B0494BE
:1011E00006D2029C039D641C00267541039502945F
:1011F00001AC70CC009F7D1BB44101948C0506941A
:10120000079C890A611800950791019C0599A4081B
:101210006143090C0D464543680BEF040D466446D7
:1012200065436C0B3C43049FED047D1BAC4602D22E
:101230000025641C6841009E019D371B85410846BE
:10124000584301950C46460FC5005443600F284390
:101250006546E4002C1B02D20025401C6E41019D16
:101260003F1AB5412846BD09800628438446A00997
:10127000BF064E020699A40676180743079D002074
:1012800068410A99079019430020099B0090604625
:10129000FF1913434041E20F64003A43A446044659
:1012A000D71A8C41A04203D90120009020463A462B
:1012B000C70F941840416246D20F2243644664002F
:1012C0000494009CBE466400D71AA44604460297C4
:1012D0008C417746002F01D1A04204D96046401CC2
:1012E0008446029A2046C40FA64694184041049AA8
:1012F0000546D20F224364466400D31A8D417146DD
:10130000002901D1A84202D928461A46641C10437C
:101310000122002800D0164361020020079B891992
:1013200004465C410223002C02DB49181346644149
:10133000089DCE0A2D145D194B056705E10A2C05A1
:101340000D1908993E43C9076940002B08D0934006
:1013500006D30022761C5141002B01D1760876007D
:101360001C4A002D43DB154241D0AA433FD03046F2
:101370000BB0F0BD06180D464D41174C7642AC41FE
:101380001AD395181C465C41134A6D42A24113D3EF
:10139000012252054C00D4420AD15C00D4420BD049
:1013A0004B4002D592021143E2E749004908DFE7CA
:1013B0005940C90FC90718E000200849D8E7054877
:1013C00001420DD10342F7D0F2E700000000FF0711
:1013D000FD4001000000F07F0000E0FF0000F87F0A
:1013E000114859400143C01241400020C0E7012389
:1013F000089A9B069A4205DC032252078918C90FF6
:10140000C907B5E7052252078918074A1143D212C6
:101410005140ADE770B515461C4602460B462846BE
:101420002146FFF7DFFD70BDFFFFFF7F30B50346AC
:10143000CA02400D1043164D164C0A1502D0204327
:10144000002A06DBAA1A002A12DDD040FF2A0BDC94
:1014500030BD5205520D01D140004008AA1A07D4F0
:10146000D0404042FF2A01DD002030BD0028FCDDD5
:101470004A00002B01D0012000E0002010180122BA
:101480005205D042F0D8C817C043604030BD0000BC
:101490001E040000000000800346CA02400D10B583
:1014A00010430A1504D00124E4072043002A05DB79
:1014B0000A4CA21A04D4D040FF2A00DD002010BD3F
:1014C0004A00002B01D0012000E00020101801226A
:1014D0005205D042F2D8C817C04310BD1E04000008
:1014E0001F22030C02D10F22000402D0030E03D0EE
:1014F00004E00020014670470002083A030F01D1C2
:101500000001121F830F01D18000921E002801DB11
:101510004000521E120551184205C01241181046D3
:101520007047C10FC90700D0404201229207114302
:10153000D6E701218907D3E710B50B1E01D0202380
:1015400001E0011E2BD00C0C01D10904103B0C0E44
:1015500001D10902083B0C0F01D109011B1F8C0F9F
:1015600001D189009B1E002901DB49005B1E044656
:10157000DC4021431C05A4182022D21A90404B05C0
:10158000C20AC90A1A430919830501D14308184040
:101590001623984002D30020521C4141104610BD32
:1015A000CA0FD20703D00B46002140429941024B9B
:1015B0001A43C1E7004ABFE70000D041F0B58B4CA9
:1015C0000F09254689B0BD437BD01D092646AE4391
:1015D000FAD00E465E402740F60F3E43254071D0BC
:1015E00024012142FBD0FF24AD19A4042D1B039537
:1015F00001252D05DB02DB0AC9022B43C90A294359
:101600001E010901040F130F050121431701880B67
:10161000820391432D098C46A90B1E438A039543EF
:10162000B30B9A0396433F09BA0B9403A743029660
:101630002E467E430497B6464E19D7190C4601969E
:10164000544305977E43371B7646BF1B3601B6468B
:10165000BE0B361900967646BC043719009C01D3A0
:10166000641C00946400002F01D001263443029EC4
:10167000049F754366467E430496760034196E00D7
:1016800034190094029C019E1C196643751BAE46DA
:10169000069465464519059C05956C435943754666
:1016A0000891691A0191049E01465143A41B0491BB
:1016B000611A009C0791E10605D0610901221143DE
:1016C00002E072E06EE06109089D00272C0A2D06F9
:1016D0006918049D7C412A0A2D066918019D624102
:1016E000AC0DAD026D185441079A910D9202551937
:1016F0006141029A644658435443069B059A5A43F3
:10170000121A131B9A0E9B015B187A41010B0005FC
:10171000C3185141220A200644195A419A4200D264
:10172000491C01204002814203D315230226F643BF
:1017300002E014230326F6432020C51AA9401746C9
:10174000AF40DA400A4320460399D8400914731881
:1017500019055118039A3843D2075140AC4009D0BB
:101760000122944006D30022401C5141002C01D19B
:10177000400840001E4A934212D301220398920669
:10178000904207DB0520400709181A480143C012A0
:10179000414004E0032040070818C10FC90700209A
:1017A00009B0F0BD0020F107FAE705180C464C41DE
:1017B00011486D42A04115D394181A465A410E485B
:1017C000644290410ED301204A004005824209D371
:1017D0005A00824206D35940C90F084AC90700205F
:1017E0001143DDE700200649DAE700000000FF07AB
:1017F000FE070000FFFFFF7F0000E0FF0000F07F1A
:101800000000F87FF0B5FF252D04C609C209FF27A7
:1018100004462E400137CB093E4348402A402B4026
:101820000746002A6BD0002B69D0AA4267D0AB4292
:1018300065D0002800DA32460125ED0529432C4306
:1018400009022002090AD21A4B0C7F24E31A434CE6
:10185000000A7C44E35C7D242404121914145B0008
:10186000A218884201D3521C00E0400049420C46B5
:101870005C4324115C43DB016415E318040A5C43F8
:10188000C502200D0C4644436419250A5D43230319
:10189000EC0C0D46654300030019EB184C42A342C3
:1018A00001D35B18401CD4052018002B07D05B0027
:1018B000C91804D3401C002901D1400840003F2131
:1018C00089048A4209D3002A08DC1106090F04D0D2
:1018D000032149074018C00FC007F0BD0122410095
:1018E000120689187F2252069142F6D20521490735
:1018F000C84201D59010F0BDFF20C005F0BD002FFB
:1019000000DA32461648AA4207D2AB4205D2190283
:10191000090E17D0F80FC007F0BDFF2563002D0694
:10192000AB42F9D84900A942F6D8AB4201D1A9424D
:10193000F2D0A94201D1002101E061004908D0059F
:101940000843F0BD1102090EFBD0FF200243D00571
:10195000F0BD0A460146104654E700007739010001
:101960000000C07F10B501469E240002CA15A307DF
:10197000002A02D01843002A04DBA21A002A0CDD38
:10198000D04010BD1206120E01D140004008A21A2C
:1019900003D4D04040420028F3DDFF224800120665
:1019A000904201D9002010BDC817C043584010BD57
:1019B0000102C21504D00123DB071943002A0ADB08
:1019C0009E239A1A02D40846D0407047FF22410055
:1019D0001206914201D900207047C017C0437047DA
:1019E0001F22030C02D10F2200041CD0030E01D1D0
:1019F0000002083A030F01D10001121F830F01D129
:101A00008000921E002801DB4000521ED2055118B2
:101A1000021251181922904004D3491C002801D108
:101A20004908490008467047C10FC90700D0404225
:101A3000012292071143D3E701218907D0E7000073
:101A400010B500F0CFF9001D10BD00BFDD29010069
:101A500000487047E83B002010B50446FFF7F0FF50
:101A60000068005DC00602D52046203010BD20462B
:101A700010BDFFB504460D4681B0243000902168AA
:101A8000880604D51022E0699143216000E001201E
:101A9000A84201DD471B00E000270498A1697A19DC
:101AA0001018081AA0612078C00602D42046FEF75C
:101AB0006BFC002608E003986268A168805D90478F
:101AC000206A401C761C206204988642F3DB207852
:101AD000C0060AD52046FEF757FC06E06268A168FA
:101AE00030209047206A401C206238467F1E002824
:101AF000F4DC07E000986268A168405D9047206AC6
:101B0000401C206228466D1E0028F3DC2046FEF7AC
:101B100051FC2078000602D5022005B0F0BD01205E
:101B2000FBE7000001694A1C02610878704700B5B4
:101B30008FB00291002105910549019379440391E9
:101B4000114604906846FEF7D1FC0FB000BD0000BE
:101B5000E5FFFFFF0A681070521C0A60704710B55D
:101B60004369002B02D0C046C04601E0FEF733FCBB
:101B7000012010BD1278014624310A7000224A70FB
:101B80000122ECE711680022D243E8E7F7B51546D9
:101B900082B00027029C2078641C0197302802D074
:101BA000002D15D015E020780127641C782804D07A
:101BB000582802D0002D09D00BE0002D01D0102DA7
:101BC00007D1207800271025641C02E0082500E0DA
:101BD0000A250026009610E000990127694308189D
:101BE00029467143020C80B200908E183804864258
:101BF00001D3012001902078641C294600F0F6F8FA
:101C00000028E9DA0398002805D0002F01D0641ECF
:101C100000E0029C04600198002806D0FFF718FF3E
:101C200002210160C81E05B0F0BD009930040843D0
:101C3000F9E701468008081A02091018020A10186C
:101C4000020C1018C008820012185200891A01E014
:101C5000401C0A390A29FBD270470000F8B5224C13
:101C60004E00069DA6420AD8A64201D1002806D100
:101C70005E00A64203D8A6420AD1002A08D00D244D
:101C8000240425422CD02946002000F0BEF8F8BDDF
:101C90000C461C430CD4994202D0EFF30080F8BDEF
:101CA000904202D0EFF30080F8BDEFF30080F8BD62
:101CB00009242407E5008B4206D0EFF30080A043FF
:101CC000591A06D2284304E0101A05D3EFF3008016
:101CD000A04380F30088F8BDEFF30080A043F1E754
:101CE000009500F0A9F8F8BD0000E0FFF0B5012371
:101CF0000A0DDB0200249A43E4430025002A28D081
:101D00005B1E9A4223D05B10D61AA64228DB721CB7
:101D100048D0342E18D20222142E2BD822D00B46B3
:101D20000D36B34001D100280FD00024701E0B46A1
:101D30008340DB0FF2412846551EA943002B03D0F8
:101D40008918002C00D09143F0BD0124EEE79A429F
:101D500039D04A000243F7D0C90FC9072846F0BD61
:101D6000002223E00122C30F400001D00024E2E75B
:101D70000124E0E70346133EB34011D00023741E54
:101D80000746A740FC0FF2411746521E9043002C15
:101D9000E5D0002B00D0521CC01969419043F0BD22
:101DA0000123ECE701220B0318430AD00023C90FDB
:101DB000C9072846002AF2D0002BF0D1054A11436A
:101DC000F0BD0123F3E70A0301D10028F8D0002079
:101DD0000149F0BD0000F03F0000F87F0048704767
:101DE000E83B002000487047083C00203A2800D219
:101DF0003038202302469A43412A01D3104637380F
:101E0000884201D30020C0437047C80212D548035E
:101E1000400F002804D0C803C04301218840704708
:101E2000EFF300800001000903210907084380F354
:101E3000008870470020704710B500200249029AC0
:101E400000F02BF810BD00000000F87F7546FFF78A
:101E5000C5FFAE46050069465346C008C00085462A
:101E600018B020B5FEF7E8F960BC00274908B6466F
:101E70000026C0C5C0C5C0C5C0C5C0C5C0C5C0C599
:101E8000C0C5403D49008D46704710B50446C04668
:101E9000C0462046FEF76CF910BD10B50C46110780
:101EA000090F092904D00A290AD008290CD104E015
:101EB00011460820FFF7A9FF06E0510606D501E00C
:101EC000510601D50120C007214610BDD10607D516
:101ED00001010909CC084907000E0006044309E086
:101EE000410F20024907000A0143200E00061D226F
:101EF000D14101430846E7E701491820ABBEFEE7A0
:101F000026000200704770B58C180578401C6B07DE
:101F10005B0F01D10378401C2A1106D10278401CC6
:101F200003E00678401C0E70491C5B1EF9D12B079C
:101F300005D40023521E0DD40B70491CFAE7037818
:101F4000401CCB1A921C03E01D780D70491C5B1CD1
:101F5000521EF9D5A142D8D3002070BD70B50446F9
:101F6000002520688068042108408008002829D0C6
:101F700020688068084000280BD020688068022113
:101F80000840002805D12068806810210843216896
:101F9000886002F0DDF905460EE002F0D9F9401B39
:101FA0000A2809D9A06D10210843A065E06D012120
:101FB0000843E065012070BD206880680421084066
:101FC0000028EAD10020F6E738B50446074908485A
:101FD0000068FEF76CFD6043009002E00098401E30
:101FE000009000980028F9D138BD000040420F0051
:101FF0009C02002070B50446002520688068800798
:10200000800F012807D120680068C007C00F002892
:1020100001D0012000E00020002837D0206880682F
:1020200005210840012800D100E0002000280AD046
:1020300000BF20688068022108432168886003206F
:102040002168086009E0A06D10210843A065E06DDB
:1020500001210843E065012070BD02F079F90546D1
:102060000EE002F075F9401B0A2809D9A06D102175
:102070000843A065E06D01210843E0650120EBE71E
:1020800020688068C007C00F0028EAD10020E3E77D
:1020900070B504460025206880688007800F0128FD
:1020A00007D120680068C007C00F002801D00120B8
:1020B00000E00020002839D1206880681C490840D1
:1020C000002801D1012000E00020002809D1A06DE6
:1020D00010210843A065E06D01210843E06501205F
:1020E00070BD206880680121084321688860012054
:1020F000FFF76AFF02F02CF905460EE002F028F91E
:10210000401B0A2809D9A06D10210843A065E06D85
:1021100001210843E0650120E2E720680068C0076C
:10212000C00F0121484048400028E7D00020D7E7F1
:102130001700008030B589B005460C460020059098
:10214000069007900890224605A905A80BF0B6F95D
:102150006846007D8021084000281CD000BF002078
:102160000AE005A9095C490005AB421C9A5CD21142
:10217000114305AA1154401C0F28F2DB08A9C978A5
:1021800049060A0E08A9CA7000BFC87887214840CE
:1021900008A9C87016E000BF00200AE005A9095C84
:1021A000490005AB421C9A5CD211114305AA115497
:1021B000401C0F28F2DB08A9C97849060A0E08A9B5
:1021C000CA7000BFFF201530005910280FD100BF82
:1021D000002009E0E11DFA31095C05AA125C5140BA
:1021E000E21DFA321154401C1028F3DB61E068460E
:1021F000007D8021084000281CD000BF00200AE09C
:1022000005A9095C490005AB421C9A5CD211114337
:1022100005AA1154401C0F28F2DB08A9C978490609
:102220000A0E08A9CA7000BFC8788721484008A9CB
:10223000C87016E000BF00200AE005A9095C49004B
:1022400005AB421C9A5CD211114305AA1154401CE3
:102250000F28F2DB08A9C97849060A0E08A9CA7036
:1022600000BF8021FF2015300259E01DFA30815453
:1022700006E00021FF2015300259E01DFA3081549C
:10228000FF2015300059401CFF211531085110283E
:10229000EFD300BF002009E0E11DFA31095C05AA77
:1022A000125C5140E21DFA321154401C1028F3DB3D
:1022B00000BF00BF00200AE02146F131095CE21DA9
:1022C000FA32125C51402246F1321154401C10285F
:1022D000F2DB00BF10222146F13101A8FEF7EAFA35
:1022E0002246294601A80BF0E9F800200590069047
:1022F0000790089009B030BD10B504461021204663
:10230000F130FEF73DFB0021FF2015300151F02197
:102310002046FEF737FB10BD70B504460D46224639
:10232000102128460BF0F8F870BDF0B585B00446D2
:102330000F461546FF201530005900283ED0FF20DB
:10234000153000591021081AA84204D2FF20153078
:102350000059081A00E028460646FF2115310A599F
:10236000E11DFA31501832463946FEF7A3FAFF2034
:10237000153000598119FF201530015100591028DE
:1023800001D3B54201D105B0F0BD00BF00200AE085
:102390002146F131095CE21DFA32125C51402246BD
:1023A000F1321154401C1028F2DB00BF22462146B6
:1023B000F13108460BF082F8BF19AD1B21E000BFD8
:1023C000002008E02146F131095C3A5C5140224688
:1023D000F1321154401C1028F4DB00BF10222146BA
:1023E000F1316846FEF766FA2246694668460BF008
:1023F00065F8102269462046F130FEF75BFA103787
:10240000103D102DDBD82A463946E01DFA30FEF784
:1024100051FAFF201530055100BFB4E770B50446EE
:10242000002503222BA16068FEF79CF900280AD141
:102430006088402802DA20460BF0FCF8204610F0B5
:10244000A3F8054640E024A16068FEF7A2F9002841
:1024500006D120460BF0EEF80BF054FA054633E0B7
:102460001FA16068FEF795F9002801D105F052FC24
:102470001CA16068FEF78DF9002805D106F034FD37
:1024800008F078F905F046FC18A16068FEF781F9BC
:10249000002802D108F06EF916E016A16068FEF778
:1024A00078F9002810D014A16068FEF772F90028AE
:1024B00008D112484088002806D01048FFF7AEFF28
:1024C000284670BD0025ED43284610F08BF82846BD
:1024D000F7E7000041542B0041542648000000005B
:1024E00041545A00415426460000000041542657EA
:1024F0000000000041540000412F00007002002045
:10250000F8B504460D4616461F460F480F490860A9
:1025100000204860032189070C4841610021C16403
:10252000012181640021416481610121C161016255
:10253000002141628162C16241630421C1630021C3
:10254000816301F0DDFAF8BD00240140500F002046
:1025500000B585B0002000900346032210210190B1
:1025600002A800F0C9FE00231A4619461846FFF7D4
:10257000C7FF05B000BD00007CB5044600262A4D0B
:102580002A480068012108432849086000BF2748FD
:1025900000680421084080080028F8D02348406BD8
:1025A000C9010843214948630021284601F036F952
:1025B000284600F0A5F90094012000030190694627
:1025C000284601F087F9284601F028FC0A21284610
:1025D00001F0B2FB284601F08BFA012149020840C4
:1025E000884203D1284601F086FA86B21049009845
:1025F000884203D00F490098884203D1284601F051
:102600000DFA02E0284601F045FC0848406B012124
:10261000490288430549486308460068400840006D
:10262000086030467CBD0000500F002000100240C2
:102630000000044800000244FFB587B006460D467E
:1026400017460024039504956846077501960121F5
:1026500001720A98069000238A1E19461C480068D9
:1026600011F023FA01282BD100BF1EE0182060438F
:10267000184940180079002811D118216143154AE2
:102680008818182201A9FDF7B1FD13480078002829
:1026900004D104F03FF901200F49087007E0092C2C
:1026A00001D100BFFEE7601CC4B20A2CDEDB00BF14
:1026B00000231A4619460648006811F0EDFA01E0B9
:1026C00000BFFEE718206043024940180BB0F0BD80
:1026D000200000204C0400202400002010B586B00B
:1026E00004460020012103460A460091019008217A
:1026F00003A800F001FE214603A801F079F806B016
:1027000010BD000022490969090E017020490969BC
:102710000902090E41701E4949690902090E8170BA
:102720001B494969090EC1701949898C0171184901
:10273000898C0904090E41711549496A0902090E7B
:1027400081711349496A090EC1711149898C0904C3
:10275000090E01720E49898C41720D49097C817202
:102760000B49098A0904090EC1720949096909025C
:10277000090E017306490969090E41730449097D6F
:1027800081730349898A0904090EC17370470000E7
:102790004000F81F014800787047000080020020C8
:1027A00010B50B480078002807D101F0DFFD08F0D4
:1027B000D5FC01200649087001E008F01BFD00204F
:1027C00008F000FC012008F0FDFB06F03DFC10BD08
:1027D0007C02002001490870704700008002002040
:1027E00010B5044604480078012803D000210846AB
:1027F00010F062FB10BD00007400002010B504460C
:102800000C480078012814D0FF2101310A48FEF756
:10281000B9F800200949086009480068022803D96E
:10282000002000F0B1FC04E005490878054910F0EB
:1028300003FC10BD74000020240700208C00002041
:102840009C0000202408002070B50546124800783E
:1028500002281FD0FF2101311048FEF793F8002015
:102860000F490860002406E00021204608300D4A88
:102870001154601CC4B2082CF6DB0B480068032816
:1028800003D9002000F080FC04E0074908780549DE
:1028900010F0D2FB70BD000074000020240700205F
:1028A0008C000020240800209C00002070B5054604
:1028B0000E480078032817D0FF2101310C48FEF79D
:1028C00061F800200B490860002406E00021204642
:1028D0001030094A1154601CC4B2082CF6DB0749B9
:1028E0000878054910F0A8FB70BD000074000020B6
:1028F000240700208C000020240800209C000020D9
:102900001CB50446044800900448019069462046DE
:1029100000F0E0FF1CBD0000FFFF077C011000007D
:10292000FEB5064600BF2D4F2D480078072809D177
:102930002C492B4A0023D356C85C06F093FA044670
:102940000D4609E02749264A0023D356C85C39467C
:1029500006F098FA04460D463046083001210A2355
:1029600006220296009101902046294606F0EEF9D3
:102970001D480078002801D1184F06E01A48007859
:10298000012801D1194F00E0194F1A480079072892
:1029900008D118490979134A505C06F063FA0446D5
:1029A0000D4608E0134909790E4A505C394606F095
:1029B00069FA04460D46301D31460C3101220A23C6
:1029C00000920191029006222046294606F0BEF9A7
:1029D0000949F06808600020FEBD000048E80100D9
:1029E0009C01002091460108A201002090D0030024
:1029F00020A107009D010020BC01002010B5044665
:102A000000221146042007F0F7FF10BD10B5002288
:102A100018210A2011F011F808490860012010F06F
:102A2000E5FF07490860F0210648FDF7ABFF03F01A
:102A300049FF054803F068FF10BD00001C0000209E
:102A4000200000204C040020B1B3000800B58BB07A
:102A5000002001210346032200910190082108A8CB
:102A600000F04AFC0020012103460322009101905E
:102A70000B2105A800F040FC0020012103460322A1
:102A8000009101900C2102A800F036FC0BB000BDB3
:102A900070B50446002C00D170BD00235A1E1946A3
:102AA0001848006811F001F8012826D125460020B9
:102AB000A860E8602874286028716861002600BF5B
:102AC00010E018207043104940180079012800D107
:102AD0000AE0092E04D103F025FF00200B490870FD
:102AE000701CC6B20A2EECDB00BF00231A46194642
:102AF0000448006811F0D0F801E000BFFEE70020B4
:102B0000CAE70000200000204C0400202400002020
:102B100010B586B00446002002210346024600910B
:102B20000190182103A800F0E7FB03A800F098FC2F
:102B3000012816D114480078401C13490870084633
:102B400000780A2813D100221146FF20043007F034
:102B500053FF06F0C9F907F00DFE00200B4908707D
:102B600005E000221146FF20043007F045FF002059
:102B700002210346032200910190182103A800F0CE
:102B8000BBFB06B010BD00005C000020550000201B
:102B9000F0B597B00746684600F0D2F9282269469A
:102BA0000AA8FDF723FB1098C5B22B000AF02CFCF5
:102BB0000D080A0C0E10121416181A1C1E202200E2
:102BC000202417E0212415E0222413E0232411E01F
:102BD00024240FE025240DE026240BE0272409E01F
:102BE000282407E0292405E02A2403E02B2401E01F
:102BF0002C2400BF00BF00200221034602460091A2
:102C00000190214614A800F077FB14A800F028FCDE
:102C1000C6B2012E02D1002004F07CFF17B0F0BD37
:102C200010B5012001F078FA022001F075FA10BD0C
:102C300010B5042001F070FA082001F06DFA10BD03
:102C400010B5102001F068FA202001F065FA40204C
:102C500001F062FA802001F05FFAFF20013001F0FC
:102C60005BFA0120400201F057FA0120800201F0D6
:102C700053FA0120C00201F04FFA0120000301F0D5
:102C80004BFA0120400301F047FA0120800301F0D4
:102C900043FA0120C00301F03FFA10BD10B504460D
:102CA000012004F025FFFF2101310C48FDF76AFEE9
:102CB00000200B4908600B480B4908600820087188
:102CC0000A460021022007F097FE0020064908600E
:102CD000087101200549087010BD0000240700207C
:102CE0008C000020E000002084000020F000002084
:102CF00070B5C4B006460C461546FF21013104A844
:102D0000FDF740FE04A8002100910B46064A019100
:102D100002902946204604F0F1F82A4604A93046DC
:102D200003F028FF44B070BD59020020012803D1F0
:102D30000349044A116002E00349024A11607047E6
:102D4000804A010878020020084901080022024B4D
:102D50005A61016070470000001200202F4880690E
:102D6000FF2101310840884205D12D4840690821E2
:102D700008432B49486129488069012149020840DC
:102D8000884205D126484069042108432449486106
:102D900022488069012189020840884205D12048E3
:102DA0004069022108431E4948611C48806901218D
:102DB000C9020840884205D11948406910210843DA
:102DC0001749486115488069012149030840884234
:102DD00005D11348406901210843114948610F4852
:102DE0008069012149040840884205D10C484069A6
:102DF000202108430A4948610848806901210904E3
:102E00000840884205D106484069402108430449EA
:102E10004861044801498861704700000020024071
:102E200000120020002F030070B5044601F090FA54
:102E300005460BE0601C002808D0002C04D001F0EF
:102E400087FA401BA04201D9032070BD2448806945
:102E5000C007C00F0121484048400028EAD120485F
:102E6000806902210840022801D11D4988611C485F
:102E70008069FF2101310840000A002829D1184843
:102E8000806949000840400A002822D1144880691E
:102E900049000840800A00281BD111488069490078
:102EA0000840C00A002814D10D48806989000840F4
:102EB000400B00280DD10A48806909010840400CE8
:102EC000002806D10648806949100840000C0028F7
:102ED00003D0FFF743FF0120B7E70020B5E700006C
:102EE00000200240002101804180704700230380C0
:102EF000438041600281704770B504460D462189C8
:102F0000681CFDF7DEFD88B270BD70B504462188EF
:102F10002046FFF7F1FF61680D5C21882046FFF72E
:102F2000EBFF2080284670BD70B504460D466188D1
:102F30002046FFF7E1FF608061886068455470BDFE
:102F400010B50446282202492046FDF74FF910BD6E
:102F5000D40D00200148007870470000B001002027
:102F60000148007870470000B10100200148006866
:102F700070470000AC010020014800787047000055
:102F8000A80100200148008870470000B20100201D
:102F90000148008870470000B401002002460D4837
:102FA000008A10820B48408A50820A48C07BD07346
:102FB0000948C07AC8720848807A88720648008931
:102FC00008810548808988810348C089C88101201B
:102FD00070470000D40D0020140E0020024600218E
:102FE0000FE0C800094B1858904208D8481CC00090
:102FF0001858904203D9C800C01800797047481C7F
:10300000C1B21529EDD300BFFEE7000064500108EE
:1030100001460B48407A00280FD10948807A0128E0
:103020000BD10848407C002802D13C20054A50744E
:103030000448407C0870012070470020FCE7000035
:10304000D40D0020340E0020F1B588B0002005908A
:103050000490FFF77DFA0898FFF78EFA0590124862
:10306000FFF78AFA04900498FEF763FA0191009042
:103070000598FEF75EFA04460C4A0D4BFEF79EFAE1
:103080000646019B009AFDF7ADFF03910290FDF704
:10309000BFFD06900749069811F042FA0446FEF774
:1030A00087FCC0B209B0F0BD000002445EBA490C12
:1030B000022BF33F0000204110B50446042209A171
:1030C0002046FDF79BFB002801D1012010BD042202
:1030D00006A12046FDF792FB002801D10220F5E76A
:1030E0004620F3E75458434D000000005458505018
:1030F0000000000001490020085670479C01002094
:1031000001480078704700000D00002070B50446AB
:10311000002C00D170BD00235A1E194609480068D2
:1031200010F0C3FC012809D12646B56800231A46D1
:1031300019460448006810F0AFFD01E000BFFEE74B
:103140002846E7E72000002007488078012809D1B9
:103150000648807B012805D10448407A002801D127
:10316000012070470020FCE7A80D0020D40D0020AE
:1031700010B50446482203492046FDF79BFB012079
:1031800010BD0000050F002010B504462648806BD6
:10319000002803D024488830FFF7A4FE2248406C62
:1031A000002803D020489430FFF79CFE012004F053
:1031B0009FFC00201D4908601D480078002806D1AA
:1031C0001C481D4908601038C07B087116E018487B
:1031D0000078012807D11748143017490860001FEC
:1031E000C07808710AE012480078022806D1114818
:1031F0002830114908601838C07D0871002201216B
:10320000FF20053007F0F8FB0B4A0021022007F0F1
:10321000F3FB002008490860087105480078401C4D
:103220000349087010BD0000340600208C00002007
:1032300075000020EC0600208400002070B588B0E6
:1032400005460E4601A928460EF002FF0446012C51
:1032500002D0462008B070BD314601A808F07EF9C2
:103260000446012C01D04620F4E70120F2E7FFB527
:103270008DB007460D46164606AA01A938460EF03F
:10328000FBFF0446022C02D0462011B0F0BD6A4676
:10329000314601A8109B08F0EDFA0446022C01D03B
:1032A0004620F2E7052204A91698FDF703FB6846BD
:1032B00000886883294606A808F050F90446012CC6
:1032C00001D04620E1E70220DFE7000010B586B01C
:1032D0000446002021780907890E064A505060886C
:1032E00001900320029001A9606800F025FF06B05C
:1032F00010BD0000B00F0020F0B587B004460E46A8
:1033000015461F46701C002801D107B0F0BD26707D
:1033100020780107090F0120884060800020205696
:10332000F0210840002810D105200007606000BF90
:103330004648C06A012108434449C8620846C06A39
:10334000C007C00F019000BF51E000202056F021BF
:10335000084010280FD13E48606000BF3B48C06A5B
:10336000022108433949C8620846C06A0221084060
:10337000019000BF3BE000202056F02108402028AB
:103380000FD13448606000BF3048C06A0421084350
:103390002E49C8620846C06A04210840019000BF57
:1033A00025E000202056F021084030280FD12A487F
:1033B000606000BF2548C06A082108432349C862ED
:1033C0000846C06A08210840019000BF0FE023486A
:1033D000606000BF1D48C06A802108431B49C86265
:1033E0000846C06A80210840019000BF00BF608885
:1033F00002900C98049002200590002D02D100202C
:10340000039017E0032D02D10320039012E0022D58
:1034100009D1012F02D11220039001E00220039074
:103420000D98069006E0012F02D11120039001E0D3
:103430000120039002A9606800F07EFE012D03D1F7
:1034400020460D9900F0D4F900BF5EE7001002405D
:103450000004005000080050000C0050001C0050F8
:1034600010B50446002C00D100BF00202056401C9F
:10347000002800D110BD6188606800F059FF40B29B
:10348000F8E70000F0B587B004460D4616461F4623
:103490000020069005200590002F01D107B0F0BD57
:1034A00060880090012D02D14448019006E0022D71
:1034B00002D14348019001E042480190002002906F
:1034C000022003906946606800F036FE330009F080
:1034D0009BFF050405080B0F0E0000BF032006909C
:1034E00009E00220069006E00120069003E000BFFC
:1034F0000020069000BF00BF6188FF220132881AB9
:1035000091423FD012DC102938D008DC01292DD09F
:1035100002292CD004292DD008293DD12BE02029C7
:103520002DD040292CD0802936D12AE00F2212023A
:10353000811A90422AD00DDCFF380138002822D0B1
:10354000FF38FF38023800281ED001218902401AB6
:1035500022D11AE001200003081A18D001214903E2
:10356000401A15D04900401A16D112E000BF0520BC
:10357000059012E000BF062005900EE000BF00BFDE
:1035800000BF00BF00BF00BF00BF00BF00BF00BF43
:1035900000BF0720059000E000BF00BF20780007B3
:1035A000800E09490F5000220699059800F01CFF73
:1035B000059800F00DFF00BF70E70000000011103B
:1035C0000000211000003110B00F0020F7B59EB0B0
:1035D0001646092700250AE006216943544A88183F
:1035E0001E99FDF707FA002800D102E06D1CBD42CC
:1035F000F2DB00BFBD4206D101214EA007F04EF91B
:10360000002021B0F0BD06206843494940184079A8
:10361000002805D101214DA007F040F90020F0E776
:1036200000240AE006216143414A88181F99FDF7EA
:10363000E1F9002800D102E0641CBC42F2DB00BFCB
:10364000BC4205D1012147A007F028F90020D8E7A6
:1036500006206043364940184079002805D10121F1
:1036600046A007F01BF90020CBE7002002210091C3
:103670000190062068432E49401805214156002339
:103680001A461BA80291FFF737FE02200196009010
:103690000620604326494018052141560023012297
:1036A00018A80291FFF728FE314618A800F0A0F8EC
:1036B000322010F02DF81BA8FFF7D2FEC0B21790F1
:1036C0001798B04210D106206043194943180620CC
:1036D000684342182FA103A80096FCF741FE012180
:1036E00003A807F0DBF811E0179801960090062078
:1036F00060430F4943180620684342182EA103A8CF
:10370000FCF72EFE012103A807F0C8F800200221D3
:10371000009101900620604305494018052141565B
:1037200000231A4618A80291FFF7E6FD012068E77A
:103730005747010870696E4E616D65496E206E6F66
:103740007420666F756E640D0A00000070696E4E1D
:10375000616D65496E2063616E2774207573650D18
:103760000A00000070696E4E616D654F7574206EC1
:103770006F7420666F756E640D0A000070696E4E7E
:10378000616D654F75742063616E27742075736574
:103790000D0A0000494F205B25732C25735D2074B2
:1037A000657374206D617463682076616C75653A29
:1037B00025640D0A00000000494F205B25732C256D
:1037C000735D2074657374206E6F74206D61746313
:1037D000682C20696E2076616C75653A25642C2012
:1037E0006F75742076616C75653A25640D0A00006A
:1037F00070B504460D46002C02D06068002800D148
:1038000000BF00202056401C002800D170BDEAB245
:103810006188606800F095FD00BFF7E7F8B50446E1
:103820000F460025002600BF5420005D012801D16D
:103830000220F8BD01215420015500BF2068806896
:103840008007800F012806D1206800680840002802
:1038500001D0012000E0002000282FD1A06DFF2121
:103860000131884302210843A065206880688907E8
:1038700008432168886000F06BFD064611E000F007
:1038800067FD801B0A280CD9A06D022188431021F6
:103890000843A06500BF00215420015500BF01204E
:1038A000C7E720688068C00FC0070028E7D1A06D77
:1038B0000221884301210843A06504E0A06D202176
:1038C0000843A065012500BF00215420015500BF19
:1038D0002846AEE770B504460D4600BF5420005D93
:1038E000012801D1022070BD01215420015500BFE3
:1038F0002068806804210840800800280AD0A06D54
:1039000020210843A06500BF00215420015500BFBD
:103910000120E8E73C496868884238D02068806A1E
:1039200029684903490B08432168886228684003D5
:10393000400B3649084001218904884208D13448A7
:10394000806849010843324988600A20FEF73CFB41
:1039500028684003400B2F49084001214904884250
:1039600005D12B48806849010843294988602868A7
:103970004003400B284908400121090488423BD1FB
:1039800023488068090208432149886034E02068A0
:10399000806A29684903490B88432168886228683E
:1039A0004003400B1949084001218904884205D190
:1039B0001748806849018843154988602868400392
:1039C000400B1449084001214904884205D11048A0
:1039D0008068490188430E49886028684003400B8D
:1039E0000D49084001210904884205D10848806832
:1039F000090288430649886000BF00215420015510
:103A000000BF00206FE70000011000000000044824
:103A100000270140000002440000014070B5044648
:103A20000025002C01D1012070BDA06D02210843AA
:103A3000A0652046FEF792FA0546002D07D12046E4
:103A4000FEF7D8FA0546012D01D00120A065012D11
:103A50003ED02068406822490840216848602048DC
:103A6000C0432168086020688068012109078843F5
:103A7000216888602068C0681A4908402168C860C9
:103A80002068006918490840216808612068406979
:103A9000C008C000216848612068006A13490840D6
:103AA0002168086220688030406BC109C901206824
:103AB0008030416320688030406BC109C9012068B3
:103AC00080304163204600F035F90020E065A065B4
:103AD00000BF00215420015500BF2846A4E7000084
:103AE00060F7FFFF00023E8302FCFF3F00F000F0A2
:103AF0000146886D704701460868006C70470000F9
:103B000010B50446002C01D1012010BDA06D002885
:103B100006D1E065002154200155204600F00BF944
:103B2000A06D10210840002806D12068806804217B
:103B30000840800800280AD0A06D10210843A06525
:103B400000BF00215420015500BF0120DDE7A06D1A
:103B5000FF210131884302210843A0652068806865
:103B60008007800F012807D120680068C007C00FB8
:103B7000002801D0012000E0002000283AD100BF39
:103B8000032189076069884207D0494260698842F9
:103B900003D04900606988420CD120680069800028
:103BA000800821680861206800696169084321680C
:103BB000086112E0206800698000800821680861BF
:103BC000594880680F21890488435749886008460E
:103BD0008068616908435449886000BF2068C068F4
:103BE000182188432168C8602068C068A16908431B
:103BF0002168C8604C4880680121490688434A49C9
:103C0000886008468068A16C490608434649886078
:103C100020688068012109070840002804D1206835
:103C200080680843216888602068C0683F49084070
:103C30002168C860216A606A022901D1042100E07C
:103C400000210843A16A49030843A16B49000843C6
:103C5000216C0843616C89030843E16CC903084384
:103C60002168C96808432168C860FF21C231206B00
:103C7000884207D0616B206B08432168C9680843FC
:103C80002168C860E06A012812D1A06A002807D123
:103C90002068C0680121090408432168C86007E062
:103CA000A06D20210843A065E06D01210843E06577
:103CB0006068012816D1206800691D490840216804
:103CC0000861A168E068084321690843216809691F
:103CD00008432168086120680069012108432168C0
:103CE00008610BE020680069C007C00F002805D0FC
:103CF0002068006940084000216808612068406928
:103D0000C008C0002168486120684069E169084333
:103D1000216848610020E065A06D022188430121EF
:103D20000843A0650020F0E6002701401902FEFFCD
:103D300003FCFF7F70477047F8B504460D46E06B03
:103D4000082801D1082711E02068C068C007C00F0B
:103D500000280AD0A06D20210843A06500BF0021E3
:103D60005420015500BF0120F8BD0C2700F0F0FAE7
:103D7000064614E0681C002811D0002D04D000F085
:103D8000E7FA801BA8420AD9A06D04210843A06568
:103D900000BF00215420015500BF0320E4E7206844
:103DA000006838400028E5D0A06D01214902084391
:103DB000A0652068C068032189020840002825D139
:103DC000A06A002822D1206800680821084008283D
:103DD0001CD12068806804210840800800280DD18B
:103DE000206840680C21884321684860A06DFF214D
:103DF0000131884301210843A06507E0A06D20211F
:103E00000843A065E06D01210843E065606C00286F
:103E100002D10C20216808600020A5E770B5044697
:103E200000252068806804210840800800282BD1E4
:103E300000BF5420005D012801D1022070BD012186
:103E40005420015500BFE06C012803D02046FEF746
:103E50001FF90546002D18D1A06D0D490840FF211E
:103E600001310843A0650020E06500BF0021542017
:103E7000015500BF1C20216808602068806804216B
:103E800008432168886000E002252846D6E7000044
:103E9000FEF1FFFF70B50446002500BF5420005D11
:103EA000012801D1022070BD01215420015500BF1D
:103EB0002046FEF753F80546002D0CD12046FEF7AC
:103EC00099F80546002D06D1A06DFF2101318843E8
:103ED00001210843A06500BF00215420015500BF07
:103EE0002846E0E703484068FF2101318843014943
:103EF000486070470020024003484068FF210131BC
:103F00000843014948607047002002400348406868
:103F10000221084301494860002070470020024008
:103F2000F8B507460C461546012600BF0F48007C31
:103F3000012801D10220F8BD01200C49087400BFFE
:103F40000B48FEF771FF0646002E07D12946204692
:103F5000FEF7FCFE0648FEF767FF064600BF00209E
:103F60000249087400BF3046E5E700000012002057
:103F700050C300000D48406802210840002810D0BE
:103F80000A484068C007C00F002804D00848074905
:103F9000C8600848C86008480449086107480861C3
:103FA00001E0012070470020FCE7000000200240F3
:103FB000EFCDAB8905040302BFAE9D8C161514131B
:103FC000F0B50B4600210022002479E001258D4048
:103FD0001D402A46002A72D005684F000326BE40C5
:103FE000B5430560CD08AE0005462035AD594E07F6
:103FF000F70E0F26BE40B543CE08B6000746203761
:10400000BD5185684F000326BE40B54385604568B5
:1040100001268E40B5434560C5684F000326BE406B
:10402000B543C560294D8E08B600AC598D072E0FDB
:104030000F25B5402C4005252D07A84201D10025AC
:1040400019E0234DA84201D1012514E0214DA842D9
:1040500001D102250FE0204DA84201D103250AE03D
:104060001E4DA84201D1042505E01D4DA84201D1F5
:10407000052500E006258E07360FB540A5421ED166
:104080008D072E0F0F25B5402C46104D8E08B6001B
:10409000AD59A5430D4E8F08BF00F551114D2D6848
:1040A0009543104E356035466D68954375603546CD
:1040B000AD689543B5603546ED689543F560491C9C
:1040C0001D46CD40002D81D1F0BD0000080001400B
:1040D0000004005000080050000C00500010005078
:1040E000001C00500004014070B504460025002C5F
:1040F00005DD02E06410681CC5B2012CFAD1A800ED
:1041000004490858002803D0A900024A50588047A3
:1041100070BD0000B00F002010B50446054840698E
:104120002040002804D0034844612046FFF7DCFF0C
:1041300010BD00000004014070B5034600220024B9
:104140000020DFE0012696400D6835402C46002C0B
:1041500077D04D68022D02D04D68122D15D1D508AB
:10416000AE001D462035A8595507EE0E0F25B54067
:104170000646AE4330465607F60E0D69B540284355
:10418000D508AD001E46203670514D68012D08D06F
:104190004D68022D05D04D68112D02D04D68122DAD
:1041A00018D1986856000325B5400646AE43304600
:1041B0005600CD68B5402843986058680125954061
:1041C0000646AE43304610264D6835402D099540D1
:1041D00028435860186856000325B5400646AE438C
:1041E00030460D79AD07AD0F5600B5402843186035
:1041F000D86856000325B5400646AE433046560003
:104200008D68B5402843D860012636074D68354093
:10421000B54276D13E4D6D6B012635433C4E7563FC
:104220003C4D9608B600A85995072E0F0F25B540AE
:104230000646AE43304605252D07AB4202D1002588
:104240001AE05EE0344DAB4201D1012514E0334D5C
:10425000AB4201D102250FE0314DAB4201D1032524
:104260000AE0304DAB4201D1042505E02E4DAB42B2
:1042700001D1052500E006259607360FB5402843F5
:10428000244D9608B600A851284D28680546A54338
:104290002846012636044D683540B54202D1054610
:1042A00025432846214D286068680546A5432846D1
:1042B000012676044D683540B54202D105462543B6
:1042C00028461A4D6860A8680546A5432846012679
:1042D00036054D683540B54202D10546254328468E
:1042E000124DA860E8680546A543284601267605D4
:1042F0004D683540B54202D10546254328460B4D51
:10430000E860521C0D68D540002D00D01AE770BD42
:104310000010024008000140000400500008005056
:10432000000C005000100050001C00500004014020
:10433000024613690B40002B01D0012000E0002051
:104340007047002A01D0816100E08162704700005F
:104350000148006870470000980200200248006889
:10436000401C0149086070479802002010B50648BB
:1043700000680221084304490860032000F006F8A1
:1043800000F018F8002010BD0020024070B504466F
:104390007D21C90006480068FCF789FB054601F04D
:1043A0000BFE00222146501E00F01EF8002070BDBA
:1043B0009C0200207047000000BFC206D20E0121FF
:1043C0009140024A116000BF7047000080E100E0A8
:1043D00000BFC206D20E01219140024A116000BF07
:1043E0007047000000E100E070B504460D46164637
:1043F0002946204603F038FC70BD000003480068E1
:10440000FF210131084301490860704700700040F6
:1044100070B5044600250026202120680840202889
:1044200004D0890120680840884277D1914800680B
:1044300003210905084003221205A16911408842A1
:1044400007D18C48006811460840E1691140884254
:104450000ED003210904A0690840884208D185488C
:104460000068012149040840002801D0012070BDE6
:104470008048806B0121090708437E4988637E4894
:104480000068891508437C490860FFF761FF05460D
:1044900006E0FFF75DFF401B642801D90320E6E733
:1044A00075480068FF21013108400028F1D07148AB
:1044B0004030006903210904084003221204A16965
:1044C0001140884208D16B484030006911460840CD
:1044D000E169114088425CD06648403000690321A0
:1044E0000904884306466348403000690121C90435
:1044F0000843604940310861084600690121C90448
:1045000088435C49403108610846066140153040E7
:10451000002815D0FFF71CFF054608E039E0FFF73B
:1045200017FF401B5549884201D903209FE7514896
:1045300040300069012149020840400A0028EED0BD
:1045400000BF03210904A069084088420BD14948F3
:1045500000680901884303221205A169114008433C
:104560004449086006E04348006803210905884380
:10457000404908603F4840300069032109048843EE
:1045800003221204A169114008433A4940310861ED
:1045900000BF2078C007C00F002809D03548403040
:1045A000C068800880006168084332494031C860B3
:1045B000022120680840022809D12E484030C068F6
:1045C0000C218843A16808432A494031C86004216E
:1045D0002068084004280AD126484030C0680321DA
:1045E00089028843E168084322494031C8600821B4
:1045F0002068084008280AD11E484030C0680321BE
:1046000009038843216908431A494031C860FF21E2
:1046100001312068084088420AD116484030C068FD
:104620000321090488436169084312494031C86085
:10463000402120680840402809D10E484030C06819
:1046400009058843216A08430A494031C86080212E
:104650002068084080280AD106484030C0680321FD
:1046600089048843616A084302494031C8600020D8
:10467000FDE60000001002400070004088130000BA
:1046800070B504460D46002676480068C007C00F86
:10469000A8420ED273480068400840002843714980
:1046A000086008460068C007C00FA84201D001207A
:1046B00070BD022120680840022807D16A48C068FE
:1046C000F0218843A16808436749C8602078C00783
:1046D000C00F00284CD06068022809D162480068E9
:1046E000012149040840400C002824D10120DFE7C3
:1046F0006068002809D15C4800680121490208402F
:10470000400A002817D10120D2E76068032809D1A8
:1047100055480068012149060840400E00280AD18A
:104720000120C5E75048006804210840800800289F
:1047300001D10120BCE74C48C06880088000616856
:1047400008434949C860FFF703FE0646606802282F
:104750000FD107E0FFF7FCFD801B4449884201D9D7
:104760000320A5E74048C0680C2108400828F1D183
:1047700034E0606803280FD107E0FFF7E9FD801BF4
:104780003A49884201D9032092E73748C0680C2192
:1047900008400C28F1D121E0606800280FD107E023
:1047A000FFF7D6FD801B3149884201D903207FE7FE
:1047B0002D48C0680C2108400028F1D10EE007E028
:1047C000FFF7C6FD801B2949884201D903206FE706
:1047D0002548C0680C2108400428F1D12148006810
:1047E000C007C00FA8420ED31E4800684008400012
:1047F00028431C49086008460068C007C00FA8424B
:1048000001D0012054E7042120680840042808D181
:104810001548C068072109028843E1680843124926
:10482000C860082120680840082809D10E48C068DF
:104830000721C90288432169C90008430A49C860A1
:1048400000F0DAF80849C968F02211400909084A5D
:10485000515CC840074908600320FFF797FD00201E
:1048600026E70000002002400010024088130000EC
:10487000104D01089C0200200148006870470000AC
:104880009C0200201F210160202201681143016069
:104890004649096852031140914203D10521090498
:1048A00041600AE041490968012212041140914225
:1048B00001D1416001E0002141603C490968FF22CB
:1048C00001321140914202D10121C16101E0002178
:1048D000C16136490968090E0162344949680722F5
:1048E00052031140490B416230498968C907C90F19
:1048F000002902D00121816101E0002181612B4961
:104900000968C907C90F002902D00121C16001E06F
:104910000021C160254949681F2212021140090A7D
:1049200001612249403109690122920211409142FC
:1049300003D10521090281600BE01C49403109695E
:10494000FF2201321140914201D1816001E000213A
:104950008160164940310969C907C90F002902D091
:104960000121416101E000214161104909680122F2
:1049700012061140914202D10221816201E001211F
:1049800081620A49C968012212041140C1620749C3
:10499000C9680F22920411408A0C02630349C96856
:1049A0000322920511408A0D4263704700100240B5
:1049B00000B5FFF761FF0549C968072212021140DF
:1049C000090A034A515CC84000BD000000100240C3
:1049D000204D010800B5FFF74FFF0549C9680722C0
:1049E000D2021140C90A034A515CC84000BD000010
:1049F00000100240204D0108F8B5002400260020D8
:104A000000900027002532484068072149030840EC
:104A1000470B2F48C0680C210840002806D0042806
:104A200009D0082811D00C2849D110E0781C0121A8
:104A30008140CD0348E02648006810210840002846
:104A400001D0244D00E0244D3EE0244D3CE02048C0
:104A5000C0680F218904084004461D48C06803212E
:104A6000890508400646A00C1D490C5CB00D461C8B
:104A70001748C068012109040840009000980028E8
:104A800015D11348006810210840002807D01149AB
:104A9000614308463146FCF70AF805460EE00E4928
:104AA000614308463146FCF702F8054606E00B492B
:104AB000614308463146FBF7FAFF054604E0781CDF
:104AC00001218140CD0300BF00BF2846F8BD000092
:104AD0000010024000093D000024F40000366E0181
:104AE000284D0108F8B5044600252078C007C00FFE
:104AF000002870D0FD48C0680C21084008280BD061
:104B0000FA48C06808400C2813D1F848C068012151
:104B10000904084088420CD1F44800680121490486
:104B20000840400C00286AD06068002867D1012046
:104B3000F8BD00BF012109046068884205D1EB4837
:104B400000680843E94908602EE00521090460680F
:104B5000884215D1E5480068012109048843E349EA
:104B6000086008460068012189040843DF4908609D
:104B700008460068012109040843DC49086013E085
:104B8000DA480068012109048843D84908600846CA
:104B90000068012109040840009000BFD348006864
:104BA00089008843D149086000BF6068002813D09D
:104BB000FFF7CEFB054606E0FFF7CAFB401B642863
:104BC00001D90320B4E7C94800680121490408401D
:104BD000400C0028F0D012E0FFF7BAFB054606E0D3
:104BE000FFF7B6FB401B642801D90320A0E7BF48AC
:104BF0000068012149040840400C0028F0D102213E
:104C00002068084002286AD1B848C0680C210840D2
:104C100004280BD0B548C06808400C281DD1B34803
:104C2000C068012109040840002816D1AF48006877
:104C3000042108408008002804D0E068012801D041
:104C4000012075E7A94840681F21090288432169AE
:104C500009020843A549486041E0E068002824D0E3
:104C6000A248006809218843E16808439F49086019
:104C7000FFF76EFB054606E0FFF76AFB401B0228C4
:104C800001D9032054E799480068042108408008AE
:104C90000028F1D0954840681F2109028843216906
:104CA000090208439149486019E0904800680921C9
:104CB0008843E16808438D490860FFF749FB0546D2
:104CC00006E0FFF745FB401B022801D903202FE730
:104CD000864800680421084080080028F1D110218E
:104CE0002068084010287ED18048C0680C21084008
:104CF00000282ED17D480068012149020840400A61
:104D0000002804D0E069002801D1012010E777488D
:104D10004068072149038843616A08437349486032
:104D2000084640680002000A218C090608436F49C2
:104D30004860FFF761FE6D49C968F022114009091A
:104D40006B4A515CC8406B4908600320FFF71EFBAB
:104D500049E0E06900282CD064480068FF21013157
:104D6000084362490860FFF7F3FA054606E0FFF7DB
:104D7000EFFA401B022801D90320D9E65B480068FE
:104D8000012149020840400A0028F0D057484068F5
:104D9000072149038843616A08435449486008462B
:104DA00040680002000A218C090608434F49486008
:104DB00019E04E480068FF21013188434B490860E3
:104DC000FFF7C6FA054606E0FFF7C2FA401B0228C5
:104DD00001D90320ACE6454800680121490208409A
:104DE000400A0028F0D1082120680840082839D15D
:104DF000606900281BD03D4840300069012108430C
:104E00003A4940310861FFF7A3FA054606E0FFF78B
:104E10009FFA401B022801D9032089E6334840301D
:104E200000690221084040080028F0D01AE02F480D
:104E300040300069400840002C4940310861FFF7CC
:104E400087FA054606E0FFF783FA401B022801D9DE
:104E500003206DE6254840300069022108404008E3
:104E60000028F0D1202120680840202854D1A069D2
:104E7000002827D000BF1D488068012108431B4936
:104E800088600846406B01210843184948631A4866
:104E9000006A0121490308431749086200BFFFF770
:104EA00057FA054606E0FFF753FA401B022801D9DE
:104EB00003203DE60D488068022108404008002894
:104EC000F1D029E000BF0948806840084000074948
:104ED00088600948006A012149038843064908623D
:104EE00000BFFFF735FA05460FE000000010024052
:104EF000104D01089C02002000000140FFF728FA35
:104F0000401B022801D9032012E69B488068022139
:104F1000084040080028F1D10421206808400428F6
:104F20007ED1002600279448806B8906084000281F
:104F300005D19148806B08438F49886301268F48CB
:104F40000068FF2101310840002817D18B48006814
:104F500008438A4908600127FFF7FAF9054606E089
:104F6000FFF7F6F9401B642801D90320E0E58348E8
:104F70000068FF21013108400028F1D000BFFF2167
:104F80000131A068884207D17B484030006908435E
:104F900079494031086140E0A068002810D1764886
:104FA00040300069FF210131884373494031086175
:104FB00008460069091588436F49403108612CE0B3
:104FC00005210902A068884217D16B48403000696A
:104FD000FF21013188436849403108610846006972
:104FE000091508436449403108610846006989157C
:104FF00008436149403108610FE05F484030006973
:10500000FF21013188435C4940310861084600694D
:105010000915884358494031086100BFA06800E085
:105020003DE0002815D0FFF793F9054607E0FFF7AC
:105030008FF9401B5249884201D9032078E54E4838
:1050400040300069012149020840400A0028EED0A2
:1050500014E0FFF77DF9054607E0FFF779F9401BFB
:105060004749884201D9032062E54348403000693E
:10507000012149020840400A0028EED1012F05D144
:105080003E480068390288433C490860012E05D13A
:105090003948806B310788433749886300BFA06A6D
:1050A000002867D03448C0680C2108400C285FD025
:1050B000A06A022841D130480068012109068843CE
:1050C0002D490860FFF744F9054606E0FFF740F96F
:1050D000401B022801D903202AE527480068012146
:1050E00049060840400E0028F0D1616B206B084350
:1050F000E16A08432049C968FD221204914308432C
:105100001D49C860084600680121090608431A497C
:105110000860FFF71DF9054606E0FFF719F9401B87
:10512000022801D9032003E513480068012149063C
:105130000840400E0028F0D01CE00F480068012114
:10514000090688430C490860FFF702F9054606E0A6
:10515000FFF7FEF8401B022801D90320E8E40648C7
:105160000068012149060840400E0028F0D101E006
:105170000120DDE40020DBE400100240007000406C
:10518000881300007047000010B50446044800680A
:10519000002803D0002002490968884710BD00009C
:1051A0008802002010B504462068806801210903A8
:1051B0000840000B002811D02068C0680911084081
:1051C000000A00280AD02046FFF7DEFF2068C068EA
:1051D00080210840124908432168C860206880681F
:1051E000012149030840400B002811D02068C06805
:1051F00009110840400A00280AD02046FFF7C2FFE4
:105200002068C06880210840064908432168C860BA
:10521000012040040449486101212120015510BDAD
:105220007FFEFFFF7FFDFFFF0004014070B50446D5
:105230000D46002600BF2020005D012801D102207C
:1052400070BD01212020015500BF02212120015500
:1052500000BFCA202168486253202168486200BF0D
:10526000FF20013085422CD1206880682946884380
:1052700021688860206880682901884321688860E7
:10528000FFF766F8064615E0FFF762F8801B7D2100
:10529000C90088420ED900BFFF202168486200BFC4
:1052A00003212120015500BF00212020015500BF0E
:1052B0000320C5E72068C068C007C00F0028E3D0FE
:1052C0002EE02068806801214902884321688860B7
:1052D0002068806801214903884321688860FFF7BE
:1052E00037F8064615E0FFF733F8801B7D21C9002B
:1052F00088420ED900BFFF202168486200BF032109
:105300002120015500BF00212020015500BF0320AE
:1053100096E72068C0680221084040080028E2D0D3
:1053200000BFFF202168486200BF012121200155F4
:1053300000BF00212020015500BF002080E70000B1
:10534000F0B506460C4617460025306840681249FD
:1053500008400546FF2000042840000CE0701F2094
:1053600000022840000A6070A806800EA070072086
:1053700040032840400B2070002F0BD1E07802F052
:1053800029FDE070607802F025FD6070A07802F0E1
:1053900021FDA0700020F0BD3FFFFF00F0B50546E5
:1053A0000C46174600262868806A606028680069F5
:1053B0004004400CA0602868006812490840064676
:1053C0003F2000043040000C20707F20000230405D
:1053D000000A60707006400EA07001208005304009
:1053E000000CE070002F0BD1207802F0F3FC20704D
:1053F000607802F0EFFC6070A07802F0EBFCA07027
:105400000020F0BD7F7F7F0010B50446002C01D145
:10541000012010BD2120005D002805D100212020A1
:105420000155204600F054F802212120015500BF0B
:10543000CA202168486253202168486200BF204684
:1054400002F0E2FC002809D000BFFF20216848627A
:1054500000BF0421212001550120DAE7206880687F
:105460001A49084021688860216960680843A16979
:105470000843216889680843216888602168E068DA
:1054800008612068006921890904084321680861CE
:105490002068C068802188432168C8602068C06C8B
:1054A000800880002168C8646169E0690843216858
:1054B000C96C08432168C86400BFFF2021684862A6
:1054C00000BF0121212001550020A2E7BFFF8FFF6F
:1054D00010B598B004461B48806B012109070843AA
:1054E00018498863FEF78AFF0C200A900020149068
:1054F000FF2001300C9000200F900AA8FFF7F2FA6D
:10550000002801D000BFFEE720200090C0020690D6
:105510006846FEF77DFF002801D000BFFEE709487E
:10552000403000690121890408430649403108617F
:10553000002202210846FEF757FF0220FEF748FF2F
:1055400018B010BD00100240FEB504460D461646C8
:10555000002700200190009000BF2020005D01285E
:1055600001D10220FEBD01212020015500BF0221F2
:1055700021200155002E2AD1206880684021084052
:10558000002800D002E00020E87000BFE869002891
:1055900000D100E000BF287802F029FC03046878FD
:1055A00002F025FC00020343A87802F020FC03432C
:1055B000E878000403432021485D02F018FC00064F
:1055C0000343E86903436869034301932FE02068BC
:1055D000806840210840002804D0287802F0FAFBB7
:1055E000019002E00020E87000BFE869002805D1C2
:1055F0002021485D02F0EEFB019005E02021485D8E
:1056000002F0E8FB019000BF2878000469780902E5
:105610000843A9780843E978090408432021495D33
:1056200009060843E9690843696908430190A969C3
:1056300068680843009000BFCA2021684862532070
:105640002168486200BFFF210131686A884241D168
:10565000206880688843216888602068C06880214D
:1056600008404D4908432168C860FEF771FE0746AF
:1056700015E0FEF76DFEC01B7D21C90088420ED9E2
:1056800000BFFF202168486200BF0321212001558F
:1056900000BF00212020015500BF032062E72068E1
:1056A000C068C007C00F0028E3D001982168C86116
:1056B00000982168486420688068FF210131084310
:1056C00021688860206880680121090308432168F7
:1056D000886043E02068806801214902884321688E
:1056E00088602068C068802108402C4908432168F0
:1056F000C860FEF72DFE074615E0FEF729FEC01B29
:105700007D21C90088420ED900BFFF202168486270
:1057100000BF03212120015500BF00212020015599
:1057200000BF03201EE72068C0680221084040082F
:105730000028E2D0019821680862009821688864F6
:105740002068806801214902084321688860206838
:105750008068012149030843216888601048006877
:105760000121490408430E49086008468068012168
:10577000490408430A49886000BFFF202168486245
:1057800000BF01212120015500BF0021202001552B
:1057900000BF0020E6E600007FFEFFFF7FFDFFFF69
:1057A00000040140F8B504460D461646002700BF28
:1057B0002020005D012801D10220F8BD0121202018
:1057C000015500BF022121200155002E09D1687822
:1057D00010210840102804D16878EF2108400A30D1
:1057E0006870002E11D1E87802F001FB030468789C
:1057F00002F0FDFA00020343A87802F0F8FA03432E
:105800002878400303431F4612E0687802F0E2FA6A
:105810000746A87802F0DEFA0746E87800046978BF
:1058200009020843A9780843297849030843074631
:1058300000BFCA202168486253202168486200BF27
:10584000204602F0E1FA00280ED000BFFF202168B8
:10585000486200BF04212120015500BF0021202003
:10586000015500BF0120A8E7194838402168486069
:105870002068C068802188432168C86020688068EB
:1058800020210840002813D1204600F0CDF8002840
:105890000ED000BFFF202168486200BF04212120F4
:1058A000015500BF00212020015500BF012084E7E1
:1058B00000BFFF202168486200BF0121212001555F
:1058C00000BF00212020015500BF002075E7000027
:1058D0003FFFFF00F8B504460D461646002700BFFF
:1058E0002020005D012801D10220F8BD01212020E7
:1058F000015500BF022121200155002E1BD1206837
:10590000806840210840002800D002E00020E870B4
:1059100000BF287802F06BFA0304687802F067FA97
:1059200000020343A87802F062FA0343E878000417
:1059300003431F4618E02068806840210840002883
:1059400004D0287802F046FA074602E00020E8700A
:1059500000BF28780004697809020843A978084341
:10596000E97809040843074600BFCA202168486255
:1059700053202168486200BF204602F045FA002803
:105980000ED000BFFF202168486200BF0421212003
:10599000015500BF00212020015500BF0120A4E7D0
:1059A0002048384021680860206880680121890407
:1059B0008843216888602969E86808432168896804
:1059C0000843216888602068C06880218843216876
:1059D000C8602068806820210840002813D1204634
:1059E00000F022F800280ED000BFFF202168486296
:1059F00000BF04212120015500BF002120200155B6
:105A000000BF012071E700BFFF202168486200BF8E
:105A100001212120015500BF00212020015500BF98
:105A2000002062E77F7F7F0070B504460025206874
:105A3000C068A02188432168C860FEF789FC05463C
:105A400008E0FEF785FC401B7D21C900884201D992
:105A5000032070BD2068C068202108400028F0D0D5
:105A60000020F6E701465120405C704710B504461F
:105A7000002C01D1012010BD5120005D002805D16E
:105A8000002150200155204600F038F80221512015
:105A90000155206800684021884321680860A1689A
:105AA00060680843E1680843216908436169084365
:105AB00001225202A16911400843E1690843216AA9
:105AC0000843A16A084321680860A069000C04210A
:105AD0000840616A0843216848602168E06A0861FB
